{
  "transactions": [
    {
      "hash": "0x6c94a3b3e3c221112f4d2d585b143bb3b266b7744e5607be46a7e54a4cdee1b1",
      "transactionType": "CALL",
      "contractName": null,
      "contractAddress": "0x779877a7b0d9e8603169ddbd7836e478b4624789",
      "function": "transferAndCall(address,uint256,bytes)",
      "arguments": [
        "0x9DdfaCa8183c41ad55329BdeeD9F6A8d53168B1B",
        "3000000000000000000",
        "0xb90c133071a0229d70318ce436343c78be9f99762f172541efd490255c9d3639"
      ],
      "transaction": {
        "from": "0xb2786c1b0f7d7b796887676e643d1c9ef89e0655",
        "to": "0x779877a7b0d9e8603169ddbd7836e478b4624789",
        "gas": "0x14cbb",
        "value": "0x0",
        "input": "0x4000aea00000000000000000000000009ddfaca8183c41ad55329bdeed9f6a8d53168b1b00000000000000000000000000000000000000000000000029a2241af62c000000000000000000000000000000000000000000000000000000000000000000600000000000000000000000000000000000000000000000000000000000000020b90c133071a0229d70318ce436343c78be9f99762f172541efd490255c9d3639",
        "nonce": "0x36",
        "chainId": "0xaa36a7"
      },
      "additionalContracts": [],
      "isFixedGasLimit": false
    }
  ],
  "receipts": [
    {
      "status": "0x1",
      "cumulativeGasUsed": "0x847cec",
      "logs": [
        {
          "address": "0x779877a7b0d9e8603169ddbd7836e478b4624789",
          "topics": [
            "0xddf252ad1be2c89b69c2b068fc378daa952ba7f163c4a11628f55a4df523b3ef",
            "0x000000000000000000000000b2786c1b0f7d7b796887676e643d1c9ef89e0655",
            "0x0000000000000000000000009ddfaca8183c41ad55329bdeed9f6a8d53168b1b"
          ],
          "data": "0x00000000000000000000000000000000000000000000000029a2241af62c0000",
          "blockHash": "0x329f5d134ae5ea19a8aa422e67fc9c602e89cdf0b9da2027e9b469aa98c7d7bc",
          "blockNumber": "0x91692b",
          "blockTimestamp": "0x690499a4",
          "transactionHash": "0x6c94a3b3e3c221112f4d2d585b143bb3b266b7744e5607be46a7e54a4cdee1b1",
          "transactionIndex": "0x5a",
          "logIndex": "0x76",
          "removed": false
        },
        {
          "address": "0x779877a7b0d9e8603169ddbd7836e478b4624789",
          "topics": [
            "0xe19260aff97b920c7df27010903aeb9c8d2be5d310a2c67824cf3f15396e4c16",
            "0x000000000000000000000000b2786c1b0f7d7b796887676e643d1c9ef89e0655",
            "0x0000000000000000000000009ddfaca8183c41ad55329bdeed9f6a8d53168b1b"
          ],
          "data": "0x00000000000000000000000000000000000000000000000029a2241af62c000000000000000000000000000000000000000000000000000000000000000000400000000000000000000000000000000000000000000000000000000000000020b90c133071a0229d70318ce436343c78be9f99762f172541efd490255c9d3639",
          "blockHash": "0x329f5d134ae5ea19a8aa422e67fc9c602e89cdf0b9da2027e9b469aa98c7d7bc",
          "blockNumber": "0x91692b",
          "blockTimestamp": "0x690499a4",
          "transactionHash": "0x6c94a3b3e3c221112f4d2d585b143bb3b266b7744e5607be46a7e54a4cdee1b1",
          "transactionIndex": "0x5a",
          "logIndex": "0x77",
          "removed": false
        },
        {
          "address": "0x9ddfaca8183c41ad55329bdeed9f6a8d53168b1b",
          "topics": [
            "0x1ced9348ff549fceab2ac57cd3a9de38edaaab274b725ee82c23e8fc8c4eec7a",
            "0xb90c133071a0229d70318ce436343c78be9f99762f172541efd490255c9d3639"
          ],
          "data": "0x0000000000000000000000000000000000000000000000004563918244f400000000000000000000000000000000000000000000000000006f05b59d3b200000",
          "blockHash": "0x329f5d134ae5ea19a8aa422e67fc9c602e89cdf0b9da2027e9b469aa98c7d7bc",
          "blockNumber": "0x91692b",
          "blockTimestamp": "0x690499a4",
          "transactionHash": "0x6c94a3b3e3c221112f4d2d585b143bb3b266b7744e5607be46a7e54a4cdee1b1",
          "transactionIndex": "0x5a",
          "logIndex": "0x78",
          "removed": false
        }
      ],
      "logsBloom": "0x00000004000000000000000000000000000000020020000000000000020000000000000000800000000000000000000000000000000000000000000000000000000000000000000000000008000000000000000000000000000020000020000008000000000000000000000000000000000000000000000000000010000040000000000000000000000000010000800000000020000000000000000000000000000000000000000000000000010000000000000000000000000005000010000000000002000000000000000000000000000000000000000100000000000000000010000000000000800008100000000000000000000000000000000000000000",
      "type": "0x2",
      "transactionHash": "0x6c94a3b3e3c221112f4d2d585b143bb3b266b7744e5607be46a7e54a4cdee1b1",
      "transactionIndex": "0x5a",
      "blockHash": "0x329f5d134ae5ea19a8aa422e67fc9c602e89cdf0b9da2027e9b469aa98c7d7bc",
      "blockNumber": "0x91692b",
      "gasUsed": "0xf0e5",
      "effectiveGasPrice": "0xf4249",
      "from": "0xb2786c1b0f7d7b796887676e643d1c9ef89e0655",
      "to": "0x779877a7b0d9e8603169ddbd7836e478b4624789",
      "contractAddress": null
    }
  ],
  "libraries": [],
  "pending": [],
  "returns": {},
  "timestamp": 1761909157989,
  "chain": 11155111,
  "commit": null
}