{
  "transactions": [
    {
      "hash": "0x8e1031754502ba5c52d80bd6eb45a1685d0698351f633feb5f5c1a63f11d4de5",
      "transactionType": "CALL",
      "contractName": null,
      "contractAddress": "0xe4ab69c077896252fafbd49efd26b5d171a32410",
      "function": "transferAndCall(address,uint256,bytes)",
      "arguments": [
        "0x5C210eF41CD1a72de73bF76eC39637bB0d3d7BEE",
        "3000000000000000000",
        "0x692c621d186bcf38a79d9a17d675c6694ecdfa7d7d0c1cb0cd7286a522a4c41a"
      ],
      "transaction": {
        "from": "0xb2786c1b0f7d7b796887676e643d1c9ef89e0655",
        "to": "0xe4ab69c077896252fafbd49efd26b5d171a32410",
        "gas": "0x15fa6",
        "value": "0x0",
        "input": "0x4000aea00000000000000000000000005c210ef41cd1a72de73bf76ec39637bb0d3d7bee00000000000000000000000000000000000000000000000029a2241af62c000000000000000000000000000000000000000000000000000000000000000000600000000000000000000000000000000000000000000000000000000000000020692c621d186bcf38a79d9a17d675c6694ecdfa7d7d0c1cb0cd7286a522a4c41a",
        "nonce": "0x2",
        "chainId": "0x14a34"
      },
      "additionalContracts": [],
      "isFixedGasLimit": false
    }
  ],
  "receipts": [
    {
      "status": "0x1",
      "cumulativeGasUsed": "0x6f94b9",
      "logs": [
        {
          "address": "0xe4ab69c077896252fafbd49efd26b5d171a32410",
          "topics": [
            "0xddf252ad1be2c89b69c2b068fc378daa952ba7f163c4a11628f55a4df523b3ef",
            "0x000000000000000000000000b2786c1b0f7d7b796887676e643d1c9ef89e0655",
            "0x0000000000000000000000005c210ef41cd1a72de73bf76ec39637bb0d3d7bee"
          ],
          "data": "0x00000000000000000000000000000000000000000000000029a2241af62c0000",
          "blockHash": "0xb165ba77be5138806e90e239079f9c4869d60f3bee7f62a2e60cb79f503b86fe",
          "blockNumber": "0x1f89e13",
          "blockTimestamp": "0x69049b06",
          "transactionHash": "0x8e1031754502ba5c52d80bd6eb45a1685d0698351f633feb5f5c1a63f11d4de5",
          "transactionIndex": "0x19",
          "logIndex": "0xf7",
          "removed": false
        },
        {
          "address": "0xe4ab69c077896252fafbd49efd26b5d171a32410",
          "topics": [
            "0xe19260aff97b920c7df27010903aeb9c8d2be5d310a2c67824cf3f15396e4c16",
            "0x000000000000000000000000b2786c1b0f7d7b796887676e643d1c9ef89e0655",
            "0x0000000000000000000000005c210ef41cd1a72de73bf76ec39637bb0d3d7bee"
          ],
          "data": "0x00000000000000000000000000000000000000000000000029a2241af62c000000000000000000000000000000000000000000000000000000000000000000400000000000000000000000000000000000000000000000000000000000000020692c621d186bcf38a79d9a17d675c6694ecdfa7d7d0c1cb0cd7286a522a4c41a",
          "blockHash": "0xb165ba77be5138806e90e239079f9c4869d60f3bee7f62a2e60cb79f503b86fe",
          "blockNumber": "0x1f89e13",
          "blockTimestamp": "0x69049b06",
          "transactionHash": "0x8e1031754502ba5c52d80bd6eb45a1685d0698351f633feb5f5c1a63f11d4de5",
          "transactionIndex": "0x19",
          "logIndex": "0xf8",
          "removed": false
        },
        {
          "address": "0x5c210ef41cd1a72de73bf76ec39637bb0d3d7bee",
          "topics": [
            "0x1ced9348ff549fceab2ac57cd3a9de38edaaab274b725ee82c23e8fc8c4eec7a",
            "0x692c621d186bcf38a79d9a17d675c6694ecdfa7d7d0c1cb0cd7286a522a4c41a"
          ],
          "data": "0x0000000000000000000000000000000000000000000000004563918244f400000000000000000000000000000000000000000000000000006f05b59d3b200000",
          "blockHash": "0xb165ba77be5138806e90e239079f9c4869d60f3bee7f62a2e60cb79f503b86fe",
          "blockNumber": "0x1f89e13",
          "blockTimestamp": "0x69049b06",
          "transactionHash": "0x8e1031754502ba5c52d80bd6eb45a1685d0698351f633feb5f5c1a63f11d4de5",
          "transactionIndex": "0x19",
          "logIndex": "0xf9",
          "removed": false
        }
      ],
      "logsBloom": "0x00008000000000100000000000000000000000030000000000000008020000000000000000000000000000000000000000010000000000000000000000000000000000000000000000000008000400000000000000000000000020000020000000000000000000000000000000000000000000000000000000000010000040000000000000000000000000000000000000000024000000000000000000000000000000000000000000000100000000000000000000000000020001000010000000000002000000000000000000000000000000000000000000000000000000000000000000000000800000000000000000000000000000000000200000100000",
      "type": "0x2",
      "transactionHash": "0x8e1031754502ba5c52d80bd6eb45a1685d0698351f633feb5f5c1a63f11d4de5",
      "transactionIndex": "0x19",
      "blockHash": "0xb165ba77be5138806e90e239079f9c4869d60f3bee7f62a2e60cb79f503b86fe",
      "blockNumber": "0x1f89e13",
      "gasUsed": "0xf072",
      "effectiveGasPrice": "0xf42b8",
      "from": "0xb2786c1b0f7d7b796887676e643d1c9ef89e0655",
      "to": "0xe4ab69c077896252fafbd49efd26b5d171a32410",
      "contractAddress": null,
      "l1BaseFeeScalar": "0x44d",
      "l1BlobBaseFee": "0x1",
      "l1BlobBaseFeeScalar": "0xa118b",
      "l1Fee": "0x6b",
      "l1GasPrice": "0x9",
      "l1GasUsed": "0x836"
    }
  ],
  "libraries": [],
  "pending": [],
  "returns": {},
  "timestamp": 1761909510669,
  "chain": 84532,
  "commit": null
}